:100000000C942A000C9447000C9463040C94470051
:100010000C9447000C9447000C9447000C94470044
:100020000C9447000C9447000C9447000C94470034
:100030000C9447000C9447000C9447000C94470024
:100040000C9447000C9447000C9447000C94470014
:100050000C94470011241FBECFE5D8E0DEBFCDBF12
:1000600010E0A0E6B0E0EAE9F7E102C005900D92E9
:10007000AA3AB107D9F721E0AAEAB0E001C01D927F
:10008000A233B207E1F70E9492050C94CB0B0C94BB
:1000900000005D9BFECF8CB908958295807F682B10
:1000A0006BBB089582E08BB988E18AB986E880BD90
:1000B00010BC8CE089B90895CF93DF93D82FC62F59
:1000C0008EEF0E9449008C2F90E4D99F800D11245F
:1000D00080580E944900DF91CF91089560E070E060
:1000E00080E090E00E945C0086E790E09F938F9311
:1000F0000E94460787E893E10197F1F700C00000EE
:100100000F900F900895CF93DF9380916A009091A4
:100110006B00892BB9F110926B0010926A008AE093
:1001200090E015C060E070E080E090E00E945C002C
:1001300086E890E09F938F930E9446078FE493ECAC
:100140000197F1F700C000000F900F90CE01EC0175
:100150002197892B39F760E070E080E090E00E9401
:100160005C008091AD008F938091AC008F938FE8FD
:1001700090E09F938F930E9446070F900F900F90EF
:100180000F901FC08091AA009091AB00892BC9F0FD
:100190001092AD001092AC0081E090E090936B0063
:1001A00080936A001092AB001092AA009FE72AE1A8
:1001B00086E0915020408040E1F700C000000E949E
:1001C0006E00DF91CF9108950E94EB068F709078BA
:1001D000992324F40197806F9F6F019690936F008D
:1001E00080936E000E94EB068F709078992324F420
:1001F0000197806F9F6F019690936D0080936C00C4
:10020000089570917400609175005091AE00409116
:10021000AF0081E090E014C0FC01EE0FFF1FEE0F75
:10022000FF1FE055FF4F30812181B281A381708390
:1002300061835283438301965B2F4A2F732F622F72
:100240002091720030917300821793072CF3089568
:100250000F931F93CF93DF9382E390E01DC0FE01C5
:10026000EE0FFF1FEE0FFF1FE055FF4F60818281F1
:100270000E944D0083EF91E00197F1F700C000006C
:10028000219602C0C0E0D0E080917200909173008E
:10029000C817D90724F3C8018C0101501109892B13
:1002A00089F7DF91CF911F910F910895CF93DF933D
:1002B00060E070E080E090E00E945C008091AD0022
:1002C0008F938091AC008F9389E990E09F938F93F7
:1002D0000E9446071092AD001092AC000F900F9054
:1002E0000F900F9084E690E060C261E082E00E948F
:1002F0004D0083EF91E00197F1F700C0000061E04D
:1003000083E00E944D0083EF91E00197F1F700C078
:10031000000061E084E00E944D0083EF91E00197CE
:10032000F1F700C0000062E081E00E944D0083EF21
:1003300091E00197F1F700C0000063E081E00E94C6
:100340004D0083EF91E00197F1F700C0000064E0F9
:1003500081E00E944D0083EF91E00197F1F700C02A
:10036000000065E081E00E944D0083EF91E001977D
:10037000F1F700C0000066E082E00E944D0083EFCC
:1003800091E00197F1F700C0000066E083E00E9471
:100390004D0083EF91E00197F1F700C0000066E0A7
:1003A00084E00E944D0083EF91E00197F1F700C0D7
:1003B000000062E085E00E944D0083EF91E001972C
:1003C000F1F700C0000063E085E00E944D0083EF7C
:1003D00091E00197F1F700C0000064E085E00E9421
:1003E0004D0083EF91E00197F1F700C0000065E058
:1003F00085E00E944D0083EF91E00197F1F700C086
:10040000000061E089E00E944D0083EF91E00197D8
:10041000F1F700C0000062E089E00E944D0083EF28
:1004200091E00197F1F700C0000063E089E00E94CD
:100430004D0083EF91E00197F1F700C0000064E008
:1004400089E00E944D0083EF91E00197F1F700C031
:10045000000065E089E00E944D0083EF91E0019784
:10046000F1F700C0000066E08AE00E944D0083EFD3
:1004700091E00197F1F700C0000067E08BE00E9477
:100480004D0083EF91E00197F1F700C0000066E0B6
:100490008CE00E944D0083EF91E00197F1F700C0DE
:1004A000000065E08DE00E944D0083EF91E0019730
:1004B000F1F700C0000064E08DE00E944D0083EF82
:1004C00091E00197F1F700C0000063E08DE00E9429
:1004D0004D0083EF91E00197F1F700C0000062E06A
:1004E0008DE00E944D0083EF91E00197F1F700C08D
:1004F000000061E08DE00E944D0083EF91E00197E4
:10050000F1F700C0000069E081E00E944D0083EF38
:1005100091E00197F1F700C000006AE081E00E94DD
:100520004D0083EF91E00197F1F700C000006BE010
:1005300081E00E944D0083EF91E00197F1F700C048
:1005400000006CE081E00E944D0083EF91E0019794
:10055000F1F700C000006DE081E00E944D0083EFE4
:1005600091E00197F1F700C000006EE081E00E9489
:100570004D0083EF91E00197F1F700C000006FE0BC
:1005800081E00E944D0083EF91E00197F1F700C0F8
:10059000000069E082E00E944D0083EF91E0019746
:1005A000F1F700C0000069E083E00E944D0083EF96
:1005B00091E00197F1F700C0000069E084E00E943B
:1005C0004D0083EF91E00197F1F700C000006CE06F
:1005D00082E00E944D0083EF91E00197F1F700C0A7
:1005E00000006CE083E00E944D0083EF91E00197F2
:1005F000F1F700C000006FE082E00E944D0083EF41
:1006000091E00197F1F700C000006FE083E00E94E5
:100610004D0083EF91E00197F1F700C000006FE01B
:1006200084E00E944D0083EF91E00197F1F700C054
:10063000000069E08AE00E944D0083EF91E001979D
:10064000F1F700C000006AE08AE00E944D0083EFED
:1006500091E00197F1F700C000006BE08AE00E9492
:100660004D0083EF91E00197F1F700C000006CE0CE
:100670008AE00E944D0083EF91E00197F1F700C0FE
:1006800000006DE08AE00E944D0083EF91E0019749
:10069000F1F700C000006EE08AE00E944D0083EF99
:1006A00091E00197F1F700C000006FE08AE00E943E
:1006B0004D0083EF91E00197F1F700C0000069E081
:1006C0008BE00E944D0083EF91E00197F1F700C0AD
:1006D000000069E08CE00E944D0083EF91E00197FB
:1006E000F1F700C0000069E08DE00E944D0083EF4B
:1006F00091E00197F1F700C000006AE08DE00E94F0
:100700004D0083EF91E00197F1F700C000006BE02E
:100710008DE00E944D0083EF91E00197F1F700C05A
:1007200000006BE08CE00E944D0083EF91E00197A8
:10073000F1F700C000006BE08AE00E944D0083EFFB
:1007400091E00197F1F700C000006CE08CE00E949E
:100750004D0083EF91E00197F1F700C000006DE0DC
:100760008DE00E944D0083EF91E00197F1F700C00A
:1007700000006EE08EE00E944D0083EF91E0019753
:10078000F1F700C000006FE08FE00E944D0083EFA2
:1007900091E00197F1F700C000002091AA0030918C
:1007A000AB00CE012130310529F0EC012197892BD6
:1007B00009F09BCD83ED90E30197F1F700C00000B5
:1007C000DF91CF91089560916C0080916E000E943E
:1007D0004D0089EF90E00197F1F700C000002091F3
:1007E000B2003091B30080916E0090916F00281795
:1007F000390789F52091B0003091B10080916C00EB
:1008000090916D002817390731F50E94E40060E0EF
:1008100070E080E090E00E945C008091AC009091DC
:10082000AD0001969093AD008093AC009F938F93A1
:100830008FE890E09F938F930E944607809172000B
:1008400090917300019690937300809372000F90C3
:100850000F900F900F900895609172007091730047
:100860006530710554F1E0EBF0E0A081B28184E0E5
:1008700090E01DC02A2F30E0FC01EE0FFF1FEE0FAD
:10088000FF1FE055FF4F408151812417350771F458
:100890002B2F30E0FC01EE0FFF1FEE0FFF1FE05586
:1008A000FF4F428153812417350751F00196861777
:1008B000970704F380E090E0089580E090E00895C9
:1008C00081E090E008951F920F920FB60F921124CD
:1008D0002F933F934F935F936F937F938F939F9348
:1008E000AF93BF93CF93DF93EF93FF93C6B3D0E063
:1008F000209709F4FEC0C031D10581F521E030E038
:100900003093AB002093AA00E0EBF0E084E090E0AD
:100910009183808345E050E0538342839093750038
:10092000809374009093AF008093AE00958384838E
:10093000978386839187808743E050E0538742877F
:100940005093730040937200309301012093000193
:1009500090937100809370000E942801C130D105EE
:1009600089F580917000909171008130910551F16D
:10097000049741F18091B2009091B300009739F44F
:100980008FE090E09093B3008093B20005C0019790
:100990009093B3008093B2000E940101E0EBF0E07D
:1009A00080819181909375008093740082819381FE
:1009B0009093AF008093AE0081E090E0909371003F
:1009C00080937000C230D10589F5809170009091BC
:1009D00071008230910551F1089741F18091B0008A
:1009E0009091B100009739F48FE090E09093B100BE
:1009F0008093B00005C001979093B1008093B00040
:100A00000E940101E0EBF0E08081918190937500FC
:100A100080937400828193819093AF008093AE00A5
:100A200082E090E09093710080937000C430D10513
:100A300081F580917000909171008130910549F1AC
:100A4000049739F18091B2009091B3008F309105F5
:100A500029F41092B3001092B20005C00196909351
:100A6000B3008093B2000E940101E0EBF0E08081CE
:100A7000918190937500809374008281938190930B
:100A8000AF008093AE0084E090E09093710080937B
:100A90007000289771F580917000909171008230FC
:100AA000910539F1089729F18091B0009091B1003A
:100AB00001968F709078992324F40197806F9F6F2F
:100AC0000196C0EBD0E0998388830E940101888160
:100AD000998190937500809374008A819B81909393
:100AE000AF008093AE0088E090E090937100809317
:100AF000700087E893E10197F1F700C00000FF91D3
:100B0000EF91DF91CF91BF91AF919F918F917F91A5
:100B10006F915F914F913F912F910F900FBE0F906A
:100B20001F9018958FEF87BBE0EBF0E084E090E03A
:100B30009183808325E030E0338322839093750096
:100B4000809374009093AF008093AE00958384836C
:100B5000978386839187808723E030E033872287DD
:100B6000309373002093720021E030E03093010154
:100B70002093000190937100809370000E945200B6
:100B800083EC99E00197F1F700C0000060E070E0AD
:100B900089E490E00E94FB0690932B0180932A0148
:100BA00085B78C6085BF80E88BBF78940E948300F6
:100BB0000E9428010E94E3030E942C04892B19F053
:100BC0000E945601F3CF83EC99E00197F1F700C042
:100BD00000008091700090917100019741F5809123
:100BE000B2009091B300009739F48FE090E09093B9
:100BF000B3008093B20005C001979093B300809337
:100C0000B2000E940101E0EBF0E0808191819093BD
:100C1000750080937400828193819093AF008093DC
:100C2000AE0081E090E0909371008093700080911D
:100C3000700090917100029741F58091B000909101
:100C4000B100009739F48FE090E09093B100809369
:100C5000B00005C001979093B1008093B0000E944E
:100C60000101E0EBF0E08081918190937500809329
:100C70007400828193819093AF008093AE0082E0F4
:100C800090E090937100809370008091700090913B
:100C90007100049739F58091B2009091B3008F30C4
:100CA000910529F41092B3001092B20005C001968C
:100CB0009093B3008093B2000E940101E0EBF0E05A
:100CC00080819181909375008093740082819381DB
:100CD0009093AF008093AE0084E090E09093710019
:100CE000809370008091700090917100089709F0D6
:100CF0005DCF8091B0009091B10001968F70907897
:100D0000992324F40197806F9F6F0196C0EBD0E088
:100D1000998388830E94010188819981909375004D
:100D2000809374008A819B819093AF008093AE0082
:100D300088E090E0909371008093700037CF8F929D
:100D40009F92AF92BF92CF92DF92EF92FF92CF939A
:100D5000DF93EC01688179818A819B81611571053E
:100D60008105910521F464E279ED8BE597E02DE1B1
:100D700033EF41E050E00E94310B49015A019B01E1
:100D8000AC01A7EAB1E40E94500B6B017C01ACEE10
:100D9000B4EFA50194010E945E0BDC01CB018C0D28
:100DA0009D1DAE1DBF1DB7FF03C00197A109B0482F
:100DB00088839983AA83BB839F77DF91CF91FF902C
:100DC000EF90DF90CF90BF90AF909F908F9008955D
:100DD0000E949F06089580E690E00E949F06089575
:100DE000A0E0B0E08093600090936100A093620067
:100DF000B093630008950F931F93CF93DF930097F1
:100E000031F46115710519F480E090E03AC08B016E
:100E1000EC016EE070E081E090E00E943D09FC0191
:100E2000892B91F380E883830115110571F01387F5
:100E3000028781E883838091280190912901892B81
:100E400021F4F0932901E09328012097C9F0D1877C
:100E5000C08783818260838380912A0190912B01D6
:100E6000892B71F4F0932B01E0932A0180912C01DE
:100E700090912D01892B21F4F0932D01E0932C0109
:100E8000CF01DF91CF911F910F910895A0E0B0E0C5
:100E9000ECE4F7E00C94730BAE014B5F5F4FFA018B
:100EA00061917191AF0180912A0190912B010E9473
:100EB0005C07E2E00C948F0BABE0B0E0E2E6F7E019
:100EC0000C94630B6C017B018A01FC011782168272
:100ED000838181FFCCC1CE0101963C01F601938153
:100EE000F70193FD859193FF81917F01882309F498
:100EF000BAC1853239F493FD859193FF81917F01C9
:100F0000853229F4B60190E00E94970AE7CF912C30
:100F1000212C312CFFE1F315D8F08B3279F038F425
:100F2000803279F08332A1F4232D20611DC08D32EF
:100F300061F0803369F4232D216016C0832D826017
:100F4000382EE32DE4603E2E2AC0F32DF8601DC03C
:100F500037FC2DC020ED280F2A3040F08E32B9F436
:100F600036FC81C1232D2064322E19C036FE06C006
:100F70008AE0989E200D1124922E11C0EAE02E9E48
:100F8000200D1124222EF32DF0623F2E08C08C3646
:100F900021F4832D8068382E02C0883641F4F70191
:100FA00093FD859193FF81917F018111B3CF982F9C
:100FB0009F7D9554933028F40C5F1F4F9FE39983D6
:100FC0000DC0833631F0833771F0833509F059C095
:100FD00021C0F801808189830E5F1F4F882483948C
:100FE000912C530113C02801F2E04F0E511CF8015F
:100FF000A080B18036FE03C0692D70E002C06FEFA3
:101000007FEFC5010E948C0A4C018201F32DFF770E
:101010003F2E16C0280122E0420E511CF801A0808C
:10102000B18036FE03C0692D70E002C06FEF7FEF24
:10103000C5010E947A0A4C01F32DF0683F2E82010F
:1010400033FC1BC0822D90E088169906B0F4B601DF
:1010500080E290E00E94970A2A94F4CFF50137FCD1
:10106000859137FE81915F01B60190E00E94970A59
:1010700021102A9421E0821A91088114910471F7B9
:10108000E8C0843611F0893641F5F80137FE07C013
:1010900060817181828193810C5F1F4F08C06081E4
:1010A0007181072E000C880B990B0E5F1F4FF32DDB
:1010B000FF763F2E97FF09C09095809570956195BA
:1010C0007F4F8F4F9F4FF0683F2E2AE030E0A30103
:1010D0000E94D30A882E861845C0853731F4232D07
:1010E0002F7EB22E2AE030E025C0932D997FB92EB5
:1010F0008F36C1F018F4883579F0B5C0803719F013
:10110000883721F0B0C0E92FE061BE2EB4FE0DC0DB
:10111000FB2DF460BF2E09C034FE0AC0292F2660C3
:10112000B22E06C028E030E005C020E130E002C069
:1011300020E132E0F801B7FE07C060817181828151
:1011400093810C5F1F4F06C06081718180E090E049
:101150000E5F1F4FA3010E94D30A882E8618FB2D15
:10116000FF773F2E36FE0DC0232D2E7FA22E891431
:1011700058F434FE0BC032FC09C0832D8E7EA82E9D
:1011800005C0B82CA32C03C0B82C01C0B92CA4FEF8
:101190000FC0FE01E80DF11D8081803321F49A2DEE
:1011A000997EA92E09C0A2FE06C0B394B39404C0D0
:1011B0008A2D867809F0B394A3FC11C0A0FE06C066
:1011C000B21488F4280C922C9B180EC0B21460F450
:1011D000B60180E290E00E94970AB394F7CFB21470
:1011E00018F42B1802C0982C212CA4FE10C0B601B4
:1011F00080E390E00E94970AA2FE17C0A1FC03C002
:1012000088E790E002C088E590E0B6010CC08A2D26
:10121000867859F0A1FE02C08BE201C080E2A7FCF3
:101220008DE2B60190E00E94970A891438F4B60165
:1012300080E390E00E94970A9A94F7CF8A94F30192
:10124000E80DF11D8081B60190E00E94970A81109F
:10125000F5CF222009F442CEB60180E290E00E9450
:10126000970A2A94F6CFF6018681978102C08FEF04
:101270009FEF2B96E2E10C947F0B0F931F93CF937C
:10128000DF93869F8001879F100D969F100D11247C
:10129000C8010E945909EC01009729F0A80160E0FB
:1012A00070E00E94850ACE01DF91CF911F910F91CE
:1012B00008950F931F93CF93DF938230910510F41D
:1012C00082E090E0E0913001F091310120E030E0E7
:1012D000A0E0B0E0309719F1408151810281138183
:1012E00048175907C8F08417950769F4109731F02B
:1012F00012960C93129713961C9327C000933001FB
:101300001093310122C02115310519F042175307FE
:1013100018F49A01BD01EF01DF01F801DBCF2115BF
:101320003105F9F0281B390B2430310580F48A810E
:101330009B816115710521F0FB019383828304C0B9
:101340009093310180933001FE01329644C0FE013A
:10135000E20FF31F8193919322503109398328833F
:101360003AC020912E0130912F01232B41F420917E
:1013700066003091670030932F0120932E01209159
:101380006400309165002115310541F42DB73EB759
:101390004091680050916900241B350BE0912E01AB
:1013A000F0912F01E217F307A0F42E1B3F0B281733
:1013B000390778F0AC014E5F5F4F2417350748F0CE
:1013C0004E0F5F1F50932F0140932E0181939193F5
:1013D00002C0E0E0F0E0CF01DF91CF911F910F91CB
:1013E0000895CF93DF93009709F481C0FC013297F1
:1013F00013821282A0913001B0913101109781F4D3
:1014000020813181820F931F20912E0130912F0175
:101410002817390751F5F0932F01E0932E0167C08B
:10142000ED0120E030E0CE17DF0740F44A815B8118
:101430009E0141155105F1F0EA01F5CFD383C28336
:1014400040815181840F951FC817D90759F48881AD
:101450009981840F951F0296918380838A819B8155
:10146000938382832115310529F4F0933101E093B0
:1014700030013DC0E901FB83EA8349915991C40FD2
:10148000D51FEC17FD0761F480819181840F951FB2
:101490000296E90199838883828193819B838A8361
:1014A000E0E0F0E012968D919C911397009719F06F
:1014B000FD01DC01F7CF8D919C9111979D012E5F6D
:1014C0003F4F820F931F20912E0130912F0128173B
:1014D000390769F4309729F41092310110923001E4
:1014E00002C013821282B0932F01A0932E01DF91CC
:1014F000CF910895FC010590615070400110D8F71C
:10150000809590958E0F9F1F0895DC0101C06D930B
:1015100041505040E0F70895FC0161507040019047
:101520000110D8F7809590958E0F9F1F08950F9307
:101530001F93CF93DF93FB01238121FD03C08FEF26
:101540009FEF2CC022FF16C0468157812481358130
:101550004217530744F4A081B1819D012F5F3F4F93
:10156000318320838C93268137812F5F3F4F3783D0
:10157000268314C08B01EC01FB010084F185E02D72
:101580000995892BE1F6D80116968D919C911797B4
:10159000019617969C938E931697CE01DF91CF916B
:1015A0001F910F910895FA01AA27283051F1203197
:1015B00081F1E8946F936E7F6E5F7F4F8F4F9F4FE7
:1015C000AF4FB1E03ED0B4E03CD0670F781F891F29
:1015D0009A1FA11D680F791F8A1F911DA11D6A0FF7
:1015E000711D811D911DA11D20D009F468943F91AA
:1015F0002AE0269F11243019305D3193DEF6CF01A9
:101600000895462F4770405D4193B3E00FD0C9F76E
:10161000F6CF462F4F70405D4A3318F0495D31FDDB
:101620004052419302D0A9F7EACFB4E0A69597952E
:10163000879577956795BA95C9F700976105710504
:1016400008959B01AC010A2E06945795479537954E
:101650002795BA95C9F7620F731F841F951FA01DA8
:101660000895052E97FB1EF400940E94480B57FD29
:1016700007D00E949A0B07FC03D04EF40C94480B41
:1016800050954095309521953F4F4F4F5F4F0895AE
:1016900090958095709561957F4F8F4F9F4F0895DE
:1016A0000E94BC0BA59F900DB49F900DA49F800D30
:1016B000911D11240895B7FF0C94500B0E94500BFC
:1016C000821B930B08952F923F924F925F926F92DD
:1016D0007F928F929F92AF92BF92CF92DF92EF92C2
:1016E000FF920F931F93CF93DF93CDB7DEB7CA1B43
:1016F000DB0B0FB6F894DEBF0FBECDBF09942A886E
:10170000398848885F846E847D848C849B84AA8415
:10171000B984C884DF80EE80FD800C811B81AA81A2
:10172000B981CE0FD11D0FB6F894DEBF0FBECDBF6D
:10173000ED010895A1E21A2EAA1BBB1BFD010DC0ED
:10174000AA1FBB1FEE1FFF1FA217B307E407F50771
:1017500020F0A21BB30BE40BF50B661F771F881F4D
:10176000991F1A9469F760957095809590959B01E3
:10177000AC01BD01CF010895A29FB001B39FC0018C
:10178000A39F700D811D1124911DB29F700D811DAD
:0A1790001124911D0895F894FFCF75
:10179A0001000000000032012000010005000700DE
:1017AA0004000100010020202020202020202020E9
:1017BA0020202020200057656C636F6D652100533F
:1017CA00636F72653A2025640046696E616C205326
:0A17DA00636F7265203A2025640059
:00000001FF
